{
  "_format": "hh-sol-artifact-1",
  "contractName": "CryptoDevToken",
  "sourceName": "contracts/CryptoDevToken.sol",
  "abi": [
    {
      "inputs": [
        {
          "internalType": "address",
          "name": "_cryptoDevsContract",
          "type": "address"
        }
      ],
      "stateMutability": "nonpayable",
      "type": "constructor"
    },
    {
      "anonymous": false,
      "inputs": [
        {
          "indexed": true,
          "internalType": "address",
          "name": "owner",
          "type": "address"
        },
        {
          "indexed": true,
          "internalType": "address",
          "name": "spender",
          "type": "address"
        },
        {
          "indexed": false,
          "internalType": "uint256",
          "name": "value",
          "type": "uint256"
        }
      ],
      "name": "Approval",
      "type": "event"
    },
    {
      "anonymous": false,
      "inputs": [
        {
          "indexed": true,
          "internalType": "address",
          "name": "previousOwner",
          "type": "address"
        },
        {
          "indexed": true,
          "internalType": "address",
          "name": "newOwner",
          "type": "address"
        }
      ],
      "name": "OwnershipTransferred",
      "type": "event"
    },
    {
      "anonymous": false,
      "inputs": [
        {
          "indexed": true,
          "internalType": "address",
          "name": "from",
          "type": "address"
        },
        {
          "indexed": true,
          "internalType": "address",
          "name": "to",
          "type": "address"
        },
        {
          "indexed": false,
          "internalType": "uint256",
          "name": "value",
          "type": "uint256"
        }
      ],
      "name": "Transfer",
      "type": "event"
    },
    {
      "stateMutability": "payable",
      "type": "fallback"
    },
    {
      "inputs": [
        {
          "internalType": "address",
          "name": "owner",
          "type": "address"
        },
        {
          "internalType": "address",
          "name": "spender",
          "type": "address"
        }
      ],
      "name": "allowance",
      "outputs": [
        {
          "internalType": "uint256",
          "name": "",
          "type": "uint256"
        }
      ],
      "stateMutability": "view",
      "type": "function"
    },
    {
      "inputs": [
        {
          "internalType": "address",
          "name": "spender",
          "type": "address"
        },
        {
          "internalType": "uint256",
          "name": "amount",
          "type": "uint256"
        }
      ],
      "name": "approve",
      "outputs": [
        {
          "internalType": "bool",
          "name": "",
          "type": "bool"
        }
      ],
      "stateMutability": "nonpayable",
      "type": "function"
    },
    {
      "inputs": [
        {
          "internalType": "address",
          "name": "account",
          "type": "address"
        }
      ],
      "name": "balanceOf",
      "outputs": [
        {
          "internalType": "uint256",
          "name": "",
          "type": "uint256"
        }
      ],
      "stateMutability": "view",
      "type": "function"
    },
    {
      "inputs": [],
      "name": "claim",
      "outputs": [],
      "stateMutability": "nonpayable",
      "type": "function"
    },
    {
      "inputs": [],
      "name": "decimals",
      "outputs": [
        {
          "internalType": "uint8",
          "name": "",
          "type": "uint8"
        }
      ],
      "stateMutability": "view",
      "type": "function"
    },
    {
      "inputs": [
        {
          "internalType": "address",
          "name": "spender",
          "type": "address"
        },
        {
          "internalType": "uint256",
          "name": "subtractedValue",
          "type": "uint256"
        }
      ],
      "name": "decreaseAllowance",
      "outputs": [
        {
          "internalType": "bool",
          "name": "",
          "type": "bool"
        }
      ],
      "stateMutability": "nonpayable",
      "type": "function"
    },
    {
      "inputs": [
        {
          "internalType": "address",
          "name": "spender",
          "type": "address"
        },
        {
          "internalType": "uint256",
          "name": "addedValue",
          "type": "uint256"
        }
      ],
      "name": "increaseAllowance",
      "outputs": [
        {
          "internalType": "bool",
          "name": "",
          "type": "bool"
        }
      ],
      "stateMutability": "nonpayable",
      "type": "function"
    },
    {
      "inputs": [],
      "name": "maxTotalSupply",
      "outputs": [
        {
          "internalType": "uint256",
          "name": "",
          "type": "uint256"
        }
      ],
      "stateMutability": "view",
      "type": "function"
    },
    {
      "inputs": [
        {
          "internalType": "uint256",
          "name": "amount",
          "type": "uint256"
        }
      ],
      "name": "mint",
      "outputs": [],
      "stateMutability": "payable",
      "type": "function"
    },
    {
      "inputs": [],
      "name": "name",
      "outputs": [
        {
          "internalType": "string",
          "name": "",
          "type": "string"
        }
      ],
      "stateMutability": "view",
      "type": "function"
    },
    {
      "inputs": [],
      "name": "owner",
      "outputs": [
        {
          "internalType": "address",
          "name": "",
          "type": "address"
        }
      ],
      "stateMutability": "view",
      "type": "function"
    },
    {
      "inputs": [],
      "name": "renounceOwnership",
      "outputs": [],
      "stateMutability": "nonpayable",
      "type": "function"
    },
    {
      "inputs": [],
      "name": "symbol",
      "outputs": [
        {
          "internalType": "string",
          "name": "",
          "type": "string"
        }
      ],
      "stateMutability": "view",
      "type": "function"
    },
    {
      "inputs": [
        {
          "internalType": "uint256",
          "name": "",
          "type": "uint256"
        }
      ],
      "name": "tokenIdsClaimed",
      "outputs": [
        {
          "internalType": "bool",
          "name": "",
          "type": "bool"
        }
      ],
      "stateMutability": "view",
      "type": "function"
    },
    {
      "inputs": [],
      "name": "tokenPrice",
      "outputs": [
        {
          "internalType": "uint256",
          "name": "",
          "type": "uint256"
        }
      ],
      "stateMutability": "view",
      "type": "function"
    },
    {
      "inputs": [],
      "name": "tokensPerNFT",
      "outputs": [
        {
          "internalType": "uint256",
          "name": "",
          "type": "uint256"
        }
      ],
      "stateMutability": "view",
      "type": "function"
    },
    {
      "inputs": [],
      "name": "totalSupply",
      "outputs": [
        {
          "internalType": "uint256",
          "name": "",
          "type": "uint256"
        }
      ],
      "stateMutability": "view",
      "type": "function"
    },
    {
      "inputs": [
        {
          "internalType": "address",
          "name": "recipient",
          "type": "address"
        },
        {
          "internalType": "uint256",
          "name": "amount",
          "type": "uint256"
        }
      ],
      "name": "transfer",
      "outputs": [
        {
          "internalType": "bool",
          "name": "",
          "type": "bool"
        }
      ],
      "stateMutability": "nonpayable",
      "type": "function"
    },
    {
      "inputs": [
        {
          "internalType": "address",
          "name": "sender",
          "type": "address"
        },
        {
          "internalType": "address",
          "name": "recipient",
          "type": "address"
        },
        {
          "internalType": "uint256",
          "name": "amount",
          "type": "uint256"
        }
      ],
      "name": "transferFrom",
      "outputs": [
        {
          "internalType": "bool",
          "name": "",
          "type": "bool"
        }
      ],
      "stateMutability": "nonpayable",
      "type": "function"
    },
    {
      "inputs": [
        {
          "internalType": "address",
          "name": "newOwner",
          "type": "address"
        }
      ],
      "name": "transferOwnership",
      "outputs": [],
      "stateMutability": "nonpayable",
      "type": "function"
    },
    {
      "stateMutability": "payable",
      "type": "receive"
    }
  ],
  "bytecode": "0x60806040523480156200001157600080fd5b506040516200263838038062002638833981810160405281019062000037919062000327565b6040518060400160405280601081526020017f43727970746f2044657620546f6b656e000000000000000000000000000000008152506040518060400160405280600281526020017f43440000000000000000000000000000000000000000000000000000000000008152508160039080519060200190620000bb9291906200020d565b508060049080519060200190620000d49291906200020d565b505050620000f7620000eb6200013f60201b60201c565b6200014760201b60201c565b80600660006101000a81548173ffffffffffffffffffffffffffffffffffffffff021916908373ffffffffffffffffffffffffffffffffffffffff16021790555050620003be565b600033905090565b6000600560009054906101000a900473ffffffffffffffffffffffffffffffffffffffff16905081600560006101000a81548173ffffffffffffffffffffffffffffffffffffffff021916908373ffffffffffffffffffffffffffffffffffffffff1602179055508173ffffffffffffffffffffffffffffffffffffffff168173ffffffffffffffffffffffffffffffffffffffff167f8be0079c531659141344cd1fd0a4f28419497f9722a3daafe3b4186f6b6457e060405160405180910390a35050565b8280546200021b9062000388565b90600052602060002090601f0160209004810192826200023f57600085556200028b565b82601f106200025a57805160ff19168380011785556200028b565b828001600101855582156200028b579182015b828111156200028a5782518255916020019190600101906200026d565b5b5090506200029a91906200029e565b5090565b5b80821115620002b95760008160009055506001016200029f565b5090565b600080fd5b600073ffffffffffffffffffffffffffffffffffffffff82169050919050565b6000620002ef82620002c2565b9050919050565b6200030181620002e2565b81146200030d57600080fd5b50565b6000815190506200032181620002f6565b92915050565b60006020828403121562000340576200033f620002bd565b5b6000620003508482850162000310565b91505092915050565b7f4e487b7100000000000000000000000000000000000000000000000000000000600052602260045260246000fd5b60006002820490506001821680620003a157607f821691505b60208210811415620003b857620003b762000359565b5b50919050565b61226a80620003ce6000396000f3fe6080604052600436106101235760003560e01c806370a08231116100a0578063a0712d6811610064578063a0712d68146103e3578063a457c2d7146103ff578063a9059cbb1461043c578063dd62ed3e14610479578063f2fde38b146104b65761012a565b806370a082311461030e578063715018a61461034b5780637ff9b596146103625780638da5cb5b1461038d57806395d89b41146103b85761012a565b8063313ce567116100e7578063313ce5671461022757806339509351146102525780634e71d92d1461028f5780635afcc2f5146102a65780635f3690af146102d15761012a565b806306fdde031461012c578063095ea7b31461015757806318160ddd1461019457806323b872dd146101bf5780632ab4d052146101fc5761012a565b3661012a57005b005b34801561013857600080fd5b506101416104df565b60405161014e919061160d565b60405180910390f35b34801561016357600080fd5b5061017e600480360381019061017991906116c8565b610571565b60405161018b9190611723565b60405180910390f35b3480156101a057600080fd5b506101a961058f565b6040516101b6919061174d565b60405180910390f35b3480156101cb57600080fd5b506101e660048036038101906101e19190611768565b610599565b6040516101f39190611723565b60405180910390f35b34801561020857600080fd5b50610211610691565b60405161021e919061174d565b60405180910390f35b34801561023357600080fd5b5061023c61069f565b60405161024991906117d7565b60405180910390f35b34801561025e57600080fd5b50610279600480360381019061027491906116c8565b6106a8565b6040516102869190611723565b60405180910390f35b34801561029b57600080fd5b506102a4610754565b005b3480156102b257600080fd5b506102bb6109c5565b6040516102c8919061174d565b60405180910390f35b3480156102dd57600080fd5b506102f860048036038101906102f391906117f2565b6109d1565b6040516103059190611723565b60405180910390f35b34801561031a57600080fd5b506103356004803603810190610330919061181f565b6109f1565b604051610342919061174d565b60405180910390f35b34801561035757600080fd5b50610360610a39565b005b34801561036e57600080fd5b50610377610ac1565b604051610384919061174d565b60405180910390f35b34801561039957600080fd5b506103a2610acc565b6040516103af919061185b565b60405180910390f35b3480156103c457600080fd5b506103cd610af6565b6040516103da919061160d565b60405180910390f35b6103fd60048036038101906103f891906117f2565b610b88565b005b34801561040b57600080fd5b50610426600480360381019061042191906116c8565b610c68565b6040516104339190611723565b60405180910390f35b34801561044857600080fd5b50610463600480360381019061045e91906116c8565b610d53565b6040516104709190611723565b60405180910390f35b34801561048557600080fd5b506104a0600480360381019061049b9190611876565b610d71565b6040516104ad919061174d565b60405180910390f35b3480156104c257600080fd5b506104dd60048036038101906104d8919061181f565b610df8565b005b6060600380546104ee906118e5565b80601f016020809104026020016040519081016040528092919081815260200182805461051a906118e5565b80156105675780601f1061053c57610100808354040283529160200191610567565b820191906000526020600020905b81548152906001019060200180831161054a57829003601f168201915b5050505050905090565b600061058561057e610ef0565b8484610ef8565b6001905092915050565b6000600254905090565b60006105a68484846110c3565b6000600160008673ffffffffffffffffffffffffffffffffffffffff1673ffffffffffffffffffffffffffffffffffffffff16815260200190815260200160002060006105f1610ef0565b73ffffffffffffffffffffffffffffffffffffffff1673ffffffffffffffffffffffffffffffffffffffff16815260200190815260200160002054905082811015610671576040517f08c379a000000000000000000000000000000000000000000000000000000000815260040161066890611989565b60405180910390fd5b6106858561067d610ef0565b858403610ef8565b60019150509392505050565b69021e19e0c9bab240000081565b60006012905090565b600061074a6106b5610ef0565b8484600160006106c3610ef0565b73ffffffffffffffffffffffffffffffffffffffff1673ffffffffffffffffffffffffffffffffffffffff16815260200190815260200160002060008873ffffffffffffffffffffffffffffffffffffffff1673ffffffffffffffffffffffffffffffffffffffff1681526020019081526020016000205461074591906119d8565b610ef8565b6001905092915050565b60003390506000600660009054906101000a900473ffffffffffffffffffffffffffffffffffffffff1673ffffffffffffffffffffffffffffffffffffffff166370a08231836040518263ffffffff1660e01b81526004016107b6919061185b565b602060405180830381865afa1580156107d3573d6000803e3d6000fd5b505050506040513d601f19601f820116820180604052508101906107f79190611a43565b90506000811161083c576040517f08c379a000000000000000000000000000000000000000000000000000000000815260040161083390611ae2565b60405180910390fd5b6000805b8281101561095f576000600660009054906101000a900473ffffffffffffffffffffffffffffffffffffffff1673ffffffffffffffffffffffffffffffffffffffff16632f745c5986846040518363ffffffff1660e01b81526004016108a7929190611b02565b602060405180830381865afa1580156108c4573d6000803e3d6000fd5b505050506040513d601f19601f820116820180604052508101906108e89190611a43565b90506007600082815260200190815260200160002060009054906101000a900460ff1661094b5760018361091c91906119d8565b925060016007600083815260200190815260200160002060006101000a81548160ff0219169083151502179055505b50808061095790611b2b565b915050610840565b50600081116109a3576040517f08c379a000000000000000000000000000000000000000000000000000000000815260040161099a90611be6565b60405180910390fd5b6109c033678ac7230489e80000836109bb9190611c06565b611344565b505050565b678ac7230489e8000081565b60076020528060005260406000206000915054906101000a900460ff1681565b60008060008373ffffffffffffffffffffffffffffffffffffffff1673ffffffffffffffffffffffffffffffffffffffff168152602001908152602001600020549050919050565b610a41610ef0565b73ffffffffffffffffffffffffffffffffffffffff16610a5f610acc565b73ffffffffffffffffffffffffffffffffffffffff1614610ab5576040517f08c379a0000000000000000000000000000000000000000000000000000000008152600401610aac90611cac565b60405180910390fd5b610abf60006114a4565b565b66038d7ea4c6800081565b6000600560009054906101000a900473ffffffffffffffffffffffffffffffffffffffff16905090565b606060048054610b05906118e5565b80601f0160208091040260200160405190810160405280929190818152602001828054610b31906118e5565b8015610b7e5780601f10610b5357610100808354040283529160200191610b7e565b820191906000526020600020905b815481529060010190602001808311610b6157829003601f168201915b5050505050905090565b60008166038d7ea4c68000610b9d9190611c06565b905080341015610be2576040517f08c379a0000000000000000000000000000000000000000000000000000000008152600401610bd990611d18565b60405180910390fd5b6000670de0b6b3a764000083610bf89190611c06565b905069021e19e0c9bab240000081610c0e61058f565b610c1891906119d8565b1115610c59576040517f08c379a0000000000000000000000000000000000000000000000000000000008152600401610c5090611daa565b60405180910390fd5b610c633382611344565b505050565b60008060016000610c77610ef0565b73ffffffffffffffffffffffffffffffffffffffff1673ffffffffffffffffffffffffffffffffffffffff16815260200190815260200160002060008573ffffffffffffffffffffffffffffffffffffffff1673ffffffffffffffffffffffffffffffffffffffff16815260200190815260200160002054905082811015610d34576040517f08c379a0000000000000000000000000000000000000000000000000000000008152600401610d2b90611e3c565b60405180910390fd5b610d48610d3f610ef0565b85858403610ef8565b600191505092915050565b6000610d67610d60610ef0565b84846110c3565b6001905092915050565b6000600160008473ffffffffffffffffffffffffffffffffffffffff1673ffffffffffffffffffffffffffffffffffffffff16815260200190815260200160002060008373ffffffffffffffffffffffffffffffffffffffff1673ffffffffffffffffffffffffffffffffffffffff16815260200190815260200160002054905092915050565b610e00610ef0565b73ffffffffffffffffffffffffffffffffffffffff16610e1e610acc565b73ffffffffffffffffffffffffffffffffffffffff1614610e74576040517f08c379a0000000000000000000000000000000000000000000000000000000008152600401610e6b90611cac565b60405180910390fd5b600073ffffffffffffffffffffffffffffffffffffffff168173ffffffffffffffffffffffffffffffffffffffff161415610ee4576040517f08c379a0000000000000000000000000000000000000000000000000000000008152600401610edb90611ece565b60405180910390fd5b610eed816114a4565b50565b600033905090565b600073ffffffffffffffffffffffffffffffffffffffff168373ffffffffffffffffffffffffffffffffffffffff161415610f68576040517f08c379a0000000000000000000000000000000000000000000000000000000008152600401610f5f90611f60565b60405180910390fd5b600073ffffffffffffffffffffffffffffffffffffffff168273ffffffffffffffffffffffffffffffffffffffff161415610fd8576040517f08c379a0000000000000000000000000000000000000000000000000000000008152600401610fcf90611ff2565b60405180910390fd5b80600160008573ffffffffffffffffffffffffffffffffffffffff1673ffffffffffffffffffffffffffffffffffffffff16815260200190815260200160002060008473ffffffffffffffffffffffffffffffffffffffff1673ffffffffffffffffffffffffffffffffffffffff168152602001908152602001600020819055508173ffffffffffffffffffffffffffffffffffffffff168373ffffffffffffffffffffffffffffffffffffffff167f8c5be1e5ebec7d5bd14f71427d1e84f3dd0314c0f7b2291e5b200ac8c7c3b925836040516110b6919061174d565b60405180910390a3505050565b600073ffffffffffffffffffffffffffffffffffffffff168373ffffffffffffffffffffffffffffffffffffffff161415611133576040517f08c379a000000000000000000000000000000000000000000000000000000000815260040161112a90612084565b60405180910390fd5b600073ffffffffffffffffffffffffffffffffffffffff168273ffffffffffffffffffffffffffffffffffffffff1614156111a3576040517f08c379a000000000000000000000000000000000000000000000000000000000815260040161119a90612116565b60405180910390fd5b6111ae83838361156a565b60008060008573ffffffffffffffffffffffffffffffffffffffff1673ffffffffffffffffffffffffffffffffffffffff16815260200190815260200160002054905081811015611234576040517f08c379a000000000000000000000000000000000000000000000000000000000815260040161122b906121a8565b60405180910390fd5b8181036000808673ffffffffffffffffffffffffffffffffffffffff1673ffffffffffffffffffffffffffffffffffffffff16815260200190815260200160002081905550816000808573ffffffffffffffffffffffffffffffffffffffff1673ffffffffffffffffffffffffffffffffffffffff16815260200190815260200160002060008282546112c791906119d8565b925050819055508273ffffffffffffffffffffffffffffffffffffffff168473ffffffffffffffffffffffffffffffffffffffff167fddf252ad1be2c89b69c2b068fc378daa952ba7f163c4a11628f55a4df523b3ef8460405161132b919061174d565b60405180910390a361133e84848461156f565b50505050565b600073ffffffffffffffffffffffffffffffffffffffff168273ffffffffffffffffffffffffffffffffffffffff1614156113b4576040517f08c379a00000000000000000000000000000000000000000000000000000000081526004016113ab90612214565b60405180910390fd5b6113c06000838361156a565b80600260008282546113d291906119d8565b92505081905550806000808473ffffffffffffffffffffffffffffffffffffffff1673ffffffffffffffffffffffffffffffffffffffff168152602001908152602001600020600082825461142791906119d8565b925050819055508173ffffffffffffffffffffffffffffffffffffffff16600073ffffffffffffffffffffffffffffffffffffffff167fddf252ad1be2c89b69c2b068fc378daa952ba7f163c4a11628f55a4df523b3ef8360405161148c919061174d565b60405180910390a36114a06000838361156f565b5050565b6000600560009054906101000a900473ffffffffffffffffffffffffffffffffffffffff16905081600560006101000a81548173ffffffffffffffffffffffffffffffffffffffff021916908373ffffffffffffffffffffffffffffffffffffffff1602179055508173ffffffffffffffffffffffffffffffffffffffff168173ffffffffffffffffffffffffffffffffffffffff167f8be0079c531659141344cd1fd0a4f28419497f9722a3daafe3b4186f6b6457e060405160405180910390a35050565b505050565b505050565b600081519050919050565b600082825260208201905092915050565b60005b838110156115ae578082015181840152602081019050611593565b838111156115bd576000848401525b50505050565b6000601f19601f8301169050919050565b60006115df82611574565b6115e9818561157f565b93506115f9818560208601611590565b611602816115c3565b840191505092915050565b6000602082019050818103600083015261162781846115d4565b905092915050565b600080fd5b600073ffffffffffffffffffffffffffffffffffffffff82169050919050565b600061165f82611634565b9050919050565b61166f81611654565b811461167a57600080fd5b50565b60008135905061168c81611666565b92915050565b6000819050919050565b6116a581611692565b81146116b057600080fd5b50565b6000813590506116c28161169c565b92915050565b600080604083850312156116df576116de61162f565b5b60006116ed8582860161167d565b92505060206116fe858286016116b3565b9150509250929050565b60008115159050919050565b61171d81611708565b82525050565b60006020820190506117386000830184611714565b92915050565b61174781611692565b82525050565b6000602082019050611762600083018461173e565b92915050565b6000806000606084860312156117815761178061162f565b5b600061178f8682870161167d565b93505060206117a08682870161167d565b92505060406117b1868287016116b3565b9150509250925092565b600060ff82169050919050565b6117d1816117bb565b82525050565b60006020820190506117ec60008301846117c8565b92915050565b6000602082840312156118085761180761162f565b5b6000611816848285016116b3565b91505092915050565b6000602082840312156118355761183461162f565b5b60006118438482850161167d565b91505092915050565b61185581611654565b82525050565b6000602082019050611870600083018461184c565b92915050565b6000806040838503121561188d5761188c61162f565b5b600061189b8582860161167d565b92505060206118ac8582860161167d565b9150509250929050565b7f4e487b7100000000000000000000000000000000000000000000000000000000600052602260045260246000fd5b600060028204905060018216806118fd57607f821691505b60208210811415611911576119106118b6565b5b50919050565b7f45524332303a207472616e7366657220616d6f756e742065786365656473206160008201527f6c6c6f77616e6365000000000000000000000000000000000000000000000000602082015250565b600061197360288361157f565b915061197e82611917565b604082019050919050565b600060208201905081810360008301526119a281611966565b9050919050565b7f4e487b7100000000000000000000000000000000000000000000000000000000600052601160045260246000fd5b60006119e382611692565b91506119ee83611692565b9250827fffffffffffffffffffffffffffffffffffffffffffffffffffffffffffffffff03821115611a2357611a226119a9565b5b828201905092915050565b600081519050611a3d8161169c565b92915050565b600060208284031215611a5957611a5861162f565b5b6000611a6784828501611a2e565b91505092915050565b7f596f7520646f6e74206f776e20616e792043727970746f20446576204e46542760008201527f7300000000000000000000000000000000000000000000000000000000000000602082015250565b6000611acc60218361157f565b9150611ad782611a70565b604082019050919050565b60006020820190508181036000830152611afb81611abf565b9050919050565b6000604082019050611b17600083018561184c565b611b24602083018461173e565b9392505050565b6000611b3682611692565b91507fffffffffffffffffffffffffffffffffffffffffffffffffffffffffffffffff821415611b6957611b686119a9565b5b600182019050919050565b7f596f75206861766520616c726561647920636c61696d656420616c6c2074686560008201527f20746f6b656e7300000000000000000000000000000000000000000000000000602082015250565b6000611bd060278361157f565b9150611bdb82611b74565b604082019050919050565b60006020820190508181036000830152611bff81611bc3565b9050919050565b6000611c1182611692565b9150611c1c83611692565b9250817fffffffffffffffffffffffffffffffffffffffffffffffffffffffffffffffff0483118215151615611c5557611c546119a9565b5b828202905092915050565b7f4f776e61626c653a2063616c6c6572206973206e6f7420746865206f776e6572600082015250565b6000611c9660208361157f565b9150611ca182611c60565b602082019050919050565b60006020820190508181036000830152611cc581611c89565b9050919050565b7f45746865722073656e7420697320696e636f7272656374000000000000000000600082015250565b6000611d0260178361157f565b9150611d0d82611ccc565b602082019050919050565b60006020820190508181036000830152611d3181611cf5565b9050919050565b7f4578636565647320746865206d617820746f74616c20737570706c792061766160008201527f696c61626c652e00000000000000000000000000000000000000000000000000602082015250565b6000611d9460278361157f565b9150611d9f82611d38565b604082019050919050565b60006020820190508181036000830152611dc381611d87565b9050919050565b7f45524332303a2064656372656173656420616c6c6f77616e63652062656c6f7760008201527f207a65726f000000000000000000000000000000000000000000000000000000602082015250565b6000611e2660258361157f565b9150611e3182611dca565b604082019050919050565b60006020820190508181036000830152611e5581611e19565b9050919050565b7f4f776e61626c653a206e6577206f776e657220697320746865207a65726f206160008201527f6464726573730000000000000000000000000000000000000000000000000000602082015250565b6000611eb860268361157f565b9150611ec382611e5c565b604082019050919050565b60006020820190508181036000830152611ee781611eab565b9050919050565b7f45524332303a20617070726f76652066726f6d20746865207a65726f2061646460008201527f7265737300000000000000000000000000000000000000000000000000000000602082015250565b6000611f4a60248361157f565b9150611f5582611eee565b604082019050919050565b60006020820190508181036000830152611f7981611f3d565b9050919050565b7f45524332303a20617070726f766520746f20746865207a65726f20616464726560008201527f7373000000000000000000000000000000000000000000000000000000000000602082015250565b6000611fdc60228361157f565b9150611fe782611f80565b604082019050919050565b6000602082019050818103600083015261200b81611fcf565b9050919050565b7f45524332303a207472616e736665722066726f6d20746865207a65726f20616460008201527f6472657373000000000000000000000000000000000000000000000000000000602082015250565b600061206e60258361157f565b915061207982612012565b604082019050919050565b6000602082019050818103600083015261209d81612061565b9050919050565b7f45524332303a207472616e7366657220746f20746865207a65726f206164647260008201527f6573730000000000000000000000000000000000000000000000000000000000602082015250565b600061210060238361157f565b915061210b826120a4565b604082019050919050565b6000602082019050818103600083015261212f816120f3565b9050919050565b7f45524332303a207472616e7366657220616d6f756e742065786365656473206260008201527f616c616e63650000000000000000000000000000000000000000000000000000602082015250565b600061219260268361157f565b915061219d82612136565b604082019050919050565b600060208201905081810360008301526121c181612185565b9050919050565b7f45524332303a206d696e7420746f20746865207a65726f206164647265737300600082015250565b60006121fe601f8361157f565b9150612209826121c8565b602082019050919050565b6000602082019050818103600083015261222d816121f1565b905091905056fea2646970667358221220dad60eab98b75df2ace40e35ff60a1b6ceec17e977b492144d8eb1a4d7e40a1c64736f6c634300080a0033",
  "linkReferences": {},
  "deployedLinkReferences": {}
}